{
  "_format": "hh-sol-artifact-1",
  "contractName": "CryptoGoblinsNFT",
  "sourceName": "contracts/CryptoGoblinsNFT.sol",
  "abi": [
    {
      "inputs": [],
      "stateMutability": "nonpayable",
      "type": "constructor"
    },
    {
      "inputs": [
        {
          "internalType": "address",
          "name": "sender",
          "type": "address"
        },
        {
          "internalType": "uint256",
          "name": "tokenId",
          "type": "uint256"
        },
        {
          "internalType": "address",
          "name": "owner",
          "type": "address"
        }
      ],
      "name": "ERC721IncorrectOwner",
      "type": "error"
    },
    {
      "inputs": [
        {
          "internalType": "address",
          "name": "operator",
          "type": "address"
        },
        {
          "internalType": "uint256",
          "name": "tokenId",
          "type": "uint256"
        }
      ],
      "name": "ERC721InsufficientApproval",
      "type": "error"
    },
    {
      "inputs": [
        {
          "internalType": "address",
          "name": "approver",
          "type": "address"
        }
      ],
      "name": "ERC721InvalidApprover",
      "type": "error"
    },
    {
      "inputs": [
        {
          "internalType": "address",
          "name": "operator",
          "type": "address"
        }
      ],
      "name": "ERC721InvalidOperator",
      "type": "error"
    },
    {
      "inputs": [
        {
          "internalType": "address",
          "name": "owner",
          "type": "address"
        }
      ],
      "name": "ERC721InvalidOwner",
      "type": "error"
    },
    {
      "inputs": [
        {
          "internalType": "address",
          "name": "receiver",
          "type": "address"
        }
      ],
      "name": "ERC721InvalidReceiver",
      "type": "error"
    },
    {
      "inputs": [
        {
          "internalType": "address",
          "name": "sender",
          "type": "address"
        }
      ],
      "name": "ERC721InvalidSender",
      "type": "error"
    },
    {
      "inputs": [
        {
          "internalType": "uint256",
          "name": "tokenId",
          "type": "uint256"
        }
      ],
      "name": "ERC721NonexistentToken",
      "type": "error"
    },
    {
      "anonymous": false,
      "inputs": [
        {
          "indexed": true,
          "internalType": "address",
          "name": "owner",
          "type": "address"
        },
        {
          "indexed": true,
          "internalType": "address",
          "name": "approved",
          "type": "address"
        },
        {
          "indexed": true,
          "internalType": "uint256",
          "name": "tokenId",
          "type": "uint256"
        }
      ],
      "name": "Approval",
      "type": "event"
    },
    {
      "anonymous": false,
      "inputs": [
        {
          "indexed": true,
          "internalType": "address",
          "name": "owner",
          "type": "address"
        },
        {
          "indexed": true,
          "internalType": "address",
          "name": "operator",
          "type": "address"
        },
        {
          "indexed": false,
          "internalType": "bool",
          "name": "approved",
          "type": "bool"
        }
      ],
      "name": "ApprovalForAll",
      "type": "event"
    },
    {
      "anonymous": false,
      "inputs": [
        {
          "indexed": false,
          "internalType": "uint256",
          "name": "_fromTokenId",
          "type": "uint256"
        },
        {
          "indexed": false,
          "internalType": "uint256",
          "name": "_toTokenId",
          "type": "uint256"
        }
      ],
      "name": "BatchMetadataUpdate",
      "type": "event"
    },
    {
      "anonymous": false,
      "inputs": [
        {
          "indexed": false,
          "internalType": "uint256",
          "name": "_tokenId",
          "type": "uint256"
        }
      ],
      "name": "MetadataUpdate",
      "type": "event"
    },
    {
      "anonymous": false,
      "inputs": [
        {
          "indexed": true,
          "internalType": "address",
          "name": "from",
          "type": "address"
        },
        {
          "indexed": true,
          "internalType": "address",
          "name": "to",
          "type": "address"
        },
        {
          "indexed": true,
          "internalType": "uint256",
          "name": "tokenId",
          "type": "uint256"
        }
      ],
      "name": "Transfer",
      "type": "event"
    },
    {
      "inputs": [
        {
          "internalType": "uint256",
          "name": "",
          "type": "uint256"
        }
      ],
      "name": "IpfsUri",
      "outputs": [
        {
          "internalType": "string",
          "name": "",
          "type": "string"
        }
      ],
      "stateMutability": "view",
      "type": "function"
    },
    {
      "inputs": [
        {
          "internalType": "uint256",
          "name": "_tokenId",
          "type": "uint256"
        }
      ],
      "name": "NFTIndex",
      "outputs": [
        {
          "internalType": "uint256",
          "name": "",
          "type": "uint256"
        }
      ],
      "stateMutability": "view",
      "type": "function"
    },
    {
      "inputs": [
        {
          "internalType": "uint256",
          "name": "",
          "type": "uint256"
        }
      ],
      "name": "agility",
      "outputs": [
        {
          "internalType": "uint256",
          "name": "",
          "type": "uint256"
        }
      ],
      "stateMutability": "view",
      "type": "function"
    },
    {
      "inputs": [
        {
          "internalType": "address",
          "name": "to",
          "type": "address"
        },
        {
          "internalType": "uint256",
          "name": "tokenId",
          "type": "uint256"
        }
      ],
      "name": "approve",
      "outputs": [],
      "stateMutability": "nonpayable",
      "type": "function"
    },
    {
      "inputs": [
        {
          "internalType": "address",
          "name": "owner",
          "type": "address"
        }
      ],
      "name": "balanceOf",
      "outputs": [
        {
          "internalType": "uint256",
          "name": "",
          "type": "uint256"
        }
      ],
      "stateMutability": "view",
      "type": "function"
    },
    {
      "inputs": [
        {
          "internalType": "uint256",
          "name": "tokenId",
          "type": "uint256"
        }
      ],
      "name": "getApproved",
      "outputs": [
        {
          "internalType": "address",
          "name": "",
          "type": "address"
        }
      ],
      "stateMutability": "view",
      "type": "function"
    },
    {
      "inputs": [
        {
          "internalType": "uint256",
          "name": "_tokenId",
          "type": "uint256"
        }
      ],
      "name": "getAttributes",
      "outputs": [
        {
          "internalType": "uint256",
          "name": "strengthValue",
          "type": "uint256"
        },
        {
          "internalType": "uint256",
          "name": "agilityValue",
          "type": "uint256"
        },
        {
          "internalType": "uint256",
          "name": "magicValue",
          "type": "uint256"
        },
        {
          "internalType": "uint256",
          "name": "intelligenceValue",
          "type": "uint256"
        }
      ],
      "stateMutability": "view",
      "type": "function"
    },
    {
      "inputs": [],
      "name": "getOwnedTokens",
      "outputs": [
        {
          "internalType": "uint256[]",
          "name": "",
          "type": "uint256[]"
        }
      ],
      "stateMutability": "view",
      "type": "function"
    },
    {
      "inputs": [
        {
          "internalType": "uint256",
          "name": "_tokenId",
          "type": "uint256"
        }
      ],
      "name": "increaseAgility",
      "outputs": [],
      "stateMutability": "nonpayable",
      "type": "function"
    },
    {
      "inputs": [
        {
          "internalType": "uint256",
          "name": "_tokenId",
          "type": "uint256"
        }
      ],
      "name": "increaseIntelligence",
      "outputs": [],
      "stateMutability": "nonpayable",
      "type": "function"
    },
    {
      "inputs": [
        {
          "internalType": "uint256",
          "name": "_tokenId",
          "type": "uint256"
        }
      ],
      "name": "increaseMagic",
      "outputs": [],
      "stateMutability": "nonpayable",
      "type": "function"
    },
    {
      "inputs": [
        {
          "internalType": "uint256",
          "name": "_tokenId",
          "type": "uint256"
        }
      ],
      "name": "increaseStrength",
      "outputs": [],
      "stateMutability": "nonpayable",
      "type": "function"
    },
    {
      "inputs": [
        {
          "internalType": "uint256",
          "name": "",
          "type": "uint256"
        }
      ],
      "name": "intelligence",
      "outputs": [
        {
          "internalType": "uint256",
          "name": "",
          "type": "uint256"
        }
      ],
      "stateMutability": "view",
      "type": "function"
    },
    {
      "inputs": [
        {
          "internalType": "address",
          "name": "owner",
          "type": "address"
        },
        {
          "internalType": "address",
          "name": "operator",
          "type": "address"
        }
      ],
      "name": "isApprovedForAll",
      "outputs": [
        {
          "internalType": "bool",
          "name": "",
          "type": "bool"
        }
      ],
      "stateMutability": "view",
      "type": "function"
    },
    {
      "inputs": [
        {
          "internalType": "uint256",
          "name": "",
          "type": "uint256"
        }
      ],
      "name": "magic",
      "outputs": [
        {
          "internalType": "uint256",
          "name": "",
          "type": "uint256"
        }
      ],
      "stateMutability": "view",
      "type": "function"
    },
    {
      "inputs": [],
      "name": "name",
      "outputs": [
        {
          "internalType": "string",
          "name": "",
          "type": "string"
        }
      ],
      "stateMutability": "view",
      "type": "function"
    },
    {
      "inputs": [
        {
          "internalType": "address",
          "name": "",
          "type": "address"
        },
        {
          "internalType": "uint256",
          "name": "",
          "type": "uint256"
        }
      ],
      "name": "ownedTokens",
      "outputs": [
        {
          "internalType": "uint256",
          "name": "",
          "type": "uint256"
        }
      ],
      "stateMutability": "view",
      "type": "function"
    },
    {
      "inputs": [
        {
          "internalType": "uint256",
          "name": "tokenId",
          "type": "uint256"
        }
      ],
      "name": "ownerOf",
      "outputs": [
        {
          "internalType": "address",
          "name": "",
          "type": "address"
        }
      ],
      "stateMutability": "view",
      "type": "function"
    },
    {
      "inputs": [
        {
          "internalType": "uint256",
          "name": "_tokenId",
          "type": "uint256"
        }
      ],
      "name": "rotatePhoto",
      "outputs": [],
      "stateMutability": "nonpayable",
      "type": "function"
    },
    {
      "inputs": [],
      "name": "safeMint",
      "outputs": [],
      "stateMutability": "nonpayable",
      "type": "function"
    },
    {
      "inputs": [
        {
          "internalType": "address",
          "name": "from",
          "type": "address"
        },
        {
          "internalType": "address",
          "name": "to",
          "type": "address"
        },
        {
          "internalType": "uint256",
          "name": "tokenId",
          "type": "uint256"
        }
      ],
      "name": "safeTransferFrom",
      "outputs": [],
      "stateMutability": "nonpayable",
      "type": "function"
    },
    {
      "inputs": [
        {
          "internalType": "address",
          "name": "from",
          "type": "address"
        },
        {
          "internalType": "address",
          "name": "to",
          "type": "address"
        },
        {
          "internalType": "uint256",
          "name": "tokenId",
          "type": "uint256"
        },
        {
          "internalType": "bytes",
          "name": "data",
          "type": "bytes"
        }
      ],
      "name": "safeTransferFrom",
      "outputs": [],
      "stateMutability": "nonpayable",
      "type": "function"
    },
    {
      "inputs": [
        {
          "internalType": "address",
          "name": "operator",
          "type": "address"
        },
        {
          "internalType": "bool",
          "name": "approved",
          "type": "bool"
        }
      ],
      "name": "setApprovalForAll",
      "outputs": [],
      "stateMutability": "nonpayable",
      "type": "function"
    },
    {
      "inputs": [
        {
          "internalType": "uint256",
          "name": "",
          "type": "uint256"
        }
      ],
      "name": "strength",
      "outputs": [
        {
          "internalType": "uint256",
          "name": "",
          "type": "uint256"
        }
      ],
      "stateMutability": "view",
      "type": "function"
    },
    {
      "inputs": [
        {
          "internalType": "bytes4",
          "name": "interfaceId",
          "type": "bytes4"
        }
      ],
      "name": "supportsInterface",
      "outputs": [
        {
          "internalType": "bool",
          "name": "",
          "type": "bool"
        }
      ],
      "stateMutability": "view",
      "type": "function"
    },
    {
      "inputs": [],
      "name": "symbol",
      "outputs": [
        {
          "internalType": "string",
          "name": "",
          "type": "string"
        }
      ],
      "stateMutability": "view",
      "type": "function"
    },
    {
      "inputs": [
        {
          "internalType": "uint256",
          "name": "tokenId",
          "type": "uint256"
        }
      ],
      "name": "tokenURI",
      "outputs": [
        {
          "internalType": "string",
          "name": "",
          "type": "string"
        }
      ],
      "stateMutability": "view",
      "type": "function"
    },
    {
      "inputs": [
        {
          "internalType": "address",
          "name": "from",
          "type": "address"
        },
        {
          "internalType": "address",
          "name": "to",
          "type": "address"
        },
        {
          "internalType": "uint256",
          "name": "tokenId",
          "type": "uint256"
        }
      ],
      "name": "transferFrom",
      "outputs": [],
      "stateMutability": "nonpayable",
      "type": "function"
    }
  ],
  "bytecode": "0x60806040526040518061018001604052806040518060c001604052806084815260200162003a7e6084913981526020016040518060c001604052806081815260200162003f866081913981526020016040518060a00160405280607d815260200162003d87607d913981526020016040518060a00160405280607c815260200162003e04607c913981526020016040518060c001604052806082815260200162003b846082913981526020016040518060c001604052806082815260200162003b026082913981526020016040518060c001604052806082815260200162003f046082913981526020016040518060c001604052806083815260200162003c066083913981526020016040518060c001604052806082815260200162003d056082913981526020016040518060c001604052806084815260200162003e806084913981526020016040518060a00160405280607c815260200162003a02607c913981526020016040518060a00160405280607c815260200162003c89607c9139815250600890600c6200019492919062000243565b50348015620001a257600080fd5b506040518060400160405280601081526020017f43727970746f476f626c696e734e4654000000000000000000000000000000008152506040518060400160405280600581526020017f53544147450000000000000000000000000000000000000000000000000000008152508160009081620002209190620005aa565b508060019081620002329190620005aa565b505050600060078190555062000691565b82805482825590600052602060002090810192821562000290579160200282015b828111156200028f5782518290816200027e9190620005aa565b509160200191906001019062000264565b5b5090506200029f9190620002a3565b5090565b5b80821115620002c75760008181620002bd9190620002cb565b50600101620002a4565b5090565b508054620002d99062000399565b6000825580601f10620002ed57506200030e565b601f0160209004906000526020600020908101906200030d919062000311565b5b50565b5b808211156200032c57600081600090555060010162000312565b5090565b600081519050919050565b7f4e487b7100000000000000000000000000000000000000000000000000000000600052604160045260246000fd5b7f4e487b7100000000000000000000000000000000000000000000000000000000600052602260045260246000fd5b60006002820490506001821680620003b257607f821691505b602082108103620003c857620003c76200036a565b5b50919050565b60008190508160005260206000209050919050565b60006020601f8301049050919050565b600082821b905092915050565b600060088302620004327fffffffffffffffffffffffffffffffffffffffffffffffffffffffffffffffff82620003f3565b6200043e8683620003f3565b95508019841693508086168417925050509392505050565b6000819050919050565b6000819050919050565b60006200048b620004856200047f8462000456565b62000460565b62000456565b9050919050565b6000819050919050565b620004a7836200046a565b620004bf620004b68262000492565b84845462000400565b825550505050565b600090565b620004d6620004c7565b620004e38184846200049c565b505050565b5b818110156200050b57620004ff600082620004cc565b600181019050620004e9565b5050565b601f8211156200055a576200052481620003ce565b6200052f84620003e3565b810160208510156200053f578190505b620005576200054e85620003e3565b830182620004e8565b50505b505050565b600082821c905092915050565b60006200057f600019846008026200055f565b1980831691505092915050565b60006200059a83836200056c565b9150826002028217905092915050565b620005b58262000330565b67ffffffffffffffff811115620005d157620005d06200033b565b5b620005dd825462000399565b620005ea8282856200050f565b600060209050601f8311600181146200062257600084156200060d578287015190505b6200061985826200058c565b86555062000689565b601f1984166200063286620003ce565b60005b828110156200065c5784890151825560018201915060208501945060208101905062000635565b868310156200067c578489015162000678601f8916826200056c565b8355505b6001600288020188555050505b505050505050565b61336180620006a16000396000f3fe608060405234801561001057600080fd5b50600436106101c45760003560e01c80638ff417ab116100f9578063c1a489df11610097578063e149f03611610071578063e149f0361461053c578063e985e9c51461056c578063ef6af4c21461059c578063f8ea173e146105b8576101c4565b8063c1a489df146104ac578063c87b56dd146104dc578063cd0d51f81461050c576101c4565b8063a77e98e9116100d3578063a77e98e914610428578063b88d4fde14610444578063be4854eb14610460578063c0c553a01461047c576101c4565b80638ff417ab146103be57806395d89b41146103ee578063a22cb4651461040c576101c4565b80634378a6e3116101665780636871ee40116101405780636871ee401461034c57806370a082311461035657806378ca73d71461038657806383965a7a146103a2576101c4565b80634378a6e3146102cb57806360820d80146102fe5780636352211e1461031c576101c4565b8063095ea7b3116101a2578063095ea7b31461024757806323b872dd146102635780633ed795941461027f57806342842e0e146102af576101c4565b806301ffc9a7146101c957806306fdde03146101f9578063081812fc14610217575b600080fd5b6101e360048036038101906101de919061248a565b6105e8565b6040516101f091906124d2565b60405180910390f35b6102016105fa565b60405161020e919061257d565b60405180910390f35b610231600480360381019061022c91906125d5565b61068c565b60405161023e9190612643565b60405180910390f35b610261600480360381019061025c919061268a565b6106a8565b005b61027d600480360381019061027891906126ca565b6106be565b005b610299600480360381019061029491906125d5565b6107c0565b6040516102a6919061272c565b60405180910390f35b6102c960048036038101906102c491906126ca565b6107d8565b005b6102e560048036038101906102e091906125d5565b6107f8565b6040516102f59493929190612747565b60405180910390f35b61030661085d565b604051610313919061284a565b60405180910390f35b610336600480360381019061033191906125d5565b6108f2565b6040516103439190612643565b60405180910390f35b610354610904565b005b610370600480360381019061036b919061286c565b610a85565b60405161037d919061272c565b60405180910390f35b6103a0600480360381019061039b91906125d5565b610b3f565b005b6103bc60048036038101906103b791906125d5565b610d17565b005b6103d860048036038101906103d391906125d5565b610db9565b6040516103e5919061257d565b60405180910390f35b6103f6610e65565b604051610403919061257d565b60405180910390f35b610426600480360381019061042191906128c5565b610ef7565b005b610442600480360381019061043d91906125d5565b610f0d565b005b61045e60048036038101906104599190612a3a565b610faf565b005b61047a600480360381019061047591906125d5565b610fcc565b005b610496600480360381019061049191906125d5565b61106e565b6040516104a3919061272c565b60405180910390f35b6104c660048036038101906104c191906125d5565b611086565b6040516104d3919061272c565b60405180910390f35b6104f660048036038101906104f191906125d5565b611186565b604051610503919061257d565b60405180910390f35b610526600480360381019061052191906125d5565b611198565b604051610533919061272c565b60405180910390f35b6105566004803603810190610551919061268a565b6111b0565b604051610563919061272c565b60405180910390f35b61058660048036038101906105819190612abd565b6111e1565b60405161059391906124d2565b60405180910390f35b6105b660048036038101906105b191906125d5565b611275565b005b6105d260048036038101906105cd91906125d5565b611317565b6040516105df919061272c565b60405180910390f35b60006105f38261132f565b9050919050565b60606000805461060990612b2c565b80601f016020809104026020016040519081016040528092919081815260200182805461063590612b2c565b80156106825780601f1061065757610100808354040283529160200191610682565b820191906000526020600020905b81548152906001019060200180831161066557829003601f168201915b5050505050905090565b600061069782611390565b506106a182611418565b9050919050565b6106ba82826106b5611455565b61145d565b5050565b600073ffffffffffffffffffffffffffffffffffffffff168273ffffffffffffffffffffffffffffffffffffffff16036107305760006040517f64a0ae920000000000000000000000000000000000000000000000000000000081526004016107279190612643565b60405180910390fd5b6000610744838361073f611455565b61146f565b90508373ffffffffffffffffffffffffffffffffffffffff168173ffffffffffffffffffffffffffffffffffffffff16146107ba578382826040517f64283d7b0000000000000000000000000000000000000000000000000000000081526004016107b193929190612b5d565b60405180910390fd5b50505050565b600a6020528060005260406000206000915090505481565b6107f383838360405180602001604052806000815250610faf565b505050565b600080600080600a6000868152602001908152602001600020549350600b6000868152602001908152602001600020549250600c6000868152602001908152602001600020549150600d60008681526020019081526020016000205490509193509193565b6060600960003373ffffffffffffffffffffffffffffffffffffffff1673ffffffffffffffffffffffffffffffffffffffff1681526020019081526020016000208054806020026020016040519081016040528092919081815260200182805480156108e857602002820191906000526020600020905b8154815260200190600101908083116108d4575b5050505050905090565b60006108fd82611390565b9050919050565b600060075490506007600081548092919061091e90612bc3565b91905055506000600442338460405160200161093c93929190612c74565b6040516020818303038152906040528051906020012060001c61095f9190612ce0565b905061096b3383611689565b610a1b826008838154811061098357610982612d11565b5b90600052602060002001805461099890612b2c565b80601f01602080910402602001604051908101604052809291908181526020018280546109c490612b2c565b8015610a115780601f106109e657610100808354040283529160200191610a11565b820191906000526020600020905b8154815290600101906020018083116109f457829003601f168201915b50505050506116a7565b600960003373ffffffffffffffffffffffffffffffffffffffff1673ffffffffffffffffffffffffffffffffffffffff1681526020019081526020016000208290806001815401808255809150506001900390600052602060002001600090919091909150555050565b60008073ffffffffffffffffffffffffffffffffffffffff168273ffffffffffffffffffffffffffffffffffffffff1603610af85760006040517f89c62b64000000000000000000000000000000000000000000000000000000008152600401610aef9190612643565b60405180910390fd5b600360008373ffffffffffffffffffffffffffffffffffffffff1673ffffffffffffffffffffffffffffffffffffffff168152602001908152602001600020549050919050565b3373ffffffffffffffffffffffffffffffffffffffff16610b5f826108f2565b73ffffffffffffffffffffffffffffffffffffffff1614610bb5576040517f08c379a0000000000000000000000000000000000000000000000000000000008152600401610bac90612db2565b60405180910390fd5b600b610bc082611086565b10610c00576040517f08c379a0000000000000000000000000000000000000000000000000000000008152600401610bf790612e44565b60405180910390fd5b60006001610c0d83611086565b610c179190612e64565b9050600060088281548110610c2f57610c2e612d11565b5b906000526020600020018054610c4490612b2c565b80601f0160208091040260200160405190810160405280929190818152602001828054610c7090612b2c565b8015610cbd5780601f10610c9257610100808354040283529160200191610cbd565b820191906000526020600020905b815481529060010190602001808311610ca057829003601f168201915b50505050509050610cce83826116a7565b60005b6002811015610d1157610ce384610fcc565b610cec84610d17565b610cf584611275565b610cfe84610f0d565b8080610d0990612bc3565b915050610cd1565b50505050565b3373ffffffffffffffffffffffffffffffffffffffff16610d37826108f2565b73ffffffffffffffffffffffffffffffffffffffff1614610d8d576040517f08c379a0000000000000000000000000000000000000000000000000000000008152600401610d8490612f0a565b60405180910390fd5b600b60008281526020019081526020016000206000815480929190610db190612bc3565b919050555050565b60088181548110610dc957600080fd5b906000526020600020016000915090508054610de490612b2c565b80601f0160208091040260200160405190810160405280929190818152602001828054610e1090612b2c565b8015610e5d5780601f10610e3257610100808354040283529160200191610e5d565b820191906000526020600020905b815481529060010190602001808311610e4057829003601f168201915b505050505081565b606060018054610e7490612b2c565b80601f0160208091040260200160405190810160405280929190818152602001828054610ea090612b2c565b8015610eed5780601f10610ec257610100808354040283529160200191610eed565b820191906000526020600020905b815481529060010190602001808311610ed057829003601f168201915b5050505050905090565b610f09610f02611455565b8383611703565b5050565b3373ffffffffffffffffffffffffffffffffffffffff16610f2d826108f2565b73ffffffffffffffffffffffffffffffffffffffff1614610f83576040517f08c379a0000000000000000000000000000000000000000000000000000000008152600401610f7a90612f0a565b60405180910390fd5b600d60008281526020019081526020016000206000815480929190610fa790612bc3565b919050555050565b610fba8484846106be565b610fc684848484611872565b50505050565b3373ffffffffffffffffffffffffffffffffffffffff16610fec826108f2565b73ffffffffffffffffffffffffffffffffffffffff1614611042576040517f08c379a000000000000000000000000000000000000000000000000000000000815260040161103990612f0a565b60405180910390fd5b600a6000828152602001908152602001600020600081548092919061106690612bc3565b919050555050565b600b6020528060005260406000206000915090505481565b60008061109283611186565b905060005b6008805490508110156111765761115482600883815481106110bc576110bb612d11565b5b9060005260206000200180546110d190612b2c565b80601f01602080910402602001604051908101604052809291908181526020018280546110fd90612b2c565b801561114a5780601f1061111f5761010080835404028352916020019161114a565b820191906000526020600020905b81548152906001019060200180831161112d57829003601f168201915b5050505050611a29565b15611163578092505050611181565b808061116e90612bc3565b915050611097565b506008805490509150505b919050565b606061119182611a82565b9050919050565b600d6020528060005260406000206000915090505481565b600960205281600052604060002081815481106111cc57600080fd5b90600052602060002001600091509150505481565b6000600560008473ffffffffffffffffffffffffffffffffffffffff1673ffffffffffffffffffffffffffffffffffffffff16815260200190815260200160002060008373ffffffffffffffffffffffffffffffffffffffff1673ffffffffffffffffffffffffffffffffffffffff16815260200190815260200160002060009054906101000a900460ff16905092915050565b3373ffffffffffffffffffffffffffffffffffffffff16611295826108f2565b73ffffffffffffffffffffffffffffffffffffffff16146112eb576040517f08c379a00000000000000000000000000000000000000000000000000000000081526004016112e290612f0a565b60405180910390fd5b600c6000828152602001908152602001600020600081548092919061130f90612bc3565b919050555050565b600c6020528060005260406000206000915090505481565b6000634906490660e01b7bffffffffffffffffffffffffffffffffffffffffffffffffffffffff1916827bffffffffffffffffffffffffffffffffffffffffffffffffffffffff19161480611389575061138882611b95565b5b9050919050565b60008061139c83611c77565b9050600073ffffffffffffffffffffffffffffffffffffffff168173ffffffffffffffffffffffffffffffffffffffff160361140f57826040517f7e273289000000000000000000000000000000000000000000000000000000008152600401611406919061272c565b60405180910390fd5b80915050919050565b60006004600083815260200190815260200160002060009054906101000a900473ffffffffffffffffffffffffffffffffffffffff169050919050565b600033905090565b61146a8383836001611cb4565b505050565b60008061147b84611c77565b9050600073ffffffffffffffffffffffffffffffffffffffff168373ffffffffffffffffffffffffffffffffffffffff16146114bd576114bc818486611e79565b5b600073ffffffffffffffffffffffffffffffffffffffff168173ffffffffffffffffffffffffffffffffffffffff161461154e576114ff600085600080611cb4565b6001600360008373ffffffffffffffffffffffffffffffffffffffff1673ffffffffffffffffffffffffffffffffffffffff168152602001908152602001600020600082825403925050819055505b600073ffffffffffffffffffffffffffffffffffffffff168573ffffffffffffffffffffffffffffffffffffffff16146115d1576001600360008773ffffffffffffffffffffffffffffffffffffffff1673ffffffffffffffffffffffffffffffffffffffff168152602001908152602001600020600082825401925050819055505b846002600086815260200190815260200160002060006101000a81548173ffffffffffffffffffffffffffffffffffffffff021916908373ffffffffffffffffffffffffffffffffffffffff160217905550838573ffffffffffffffffffffffffffffffffffffffff168273ffffffffffffffffffffffffffffffffffffffff167fddf252ad1be2c89b69c2b068fc378daa952ba7f163c4a11628f55a4df523b3ef60405160405180910390a4809150509392505050565b6116a3828260405180602001604052806000815250611f3d565b5050565b806006600084815260200190815260200160002090816116c791906130d6565b507ff8e1a15aba9398e019f0b49df1a4fde98ee17ae345cb5f6b5e2c27f5033e8ce7826040516116f7919061272c565b60405180910390a15050565b600073ffffffffffffffffffffffffffffffffffffffff168273ffffffffffffffffffffffffffffffffffffffff160361177457816040517f5b08ba1800000000000000000000000000000000000000000000000000000000815260040161176b9190612643565b60405180910390fd5b80600560008573ffffffffffffffffffffffffffffffffffffffff1673ffffffffffffffffffffffffffffffffffffffff16815260200190815260200160002060008473ffffffffffffffffffffffffffffffffffffffff1673ffffffffffffffffffffffffffffffffffffffff16815260200190815260200160002060006101000a81548160ff0219169083151502179055508173ffffffffffffffffffffffffffffffffffffffff168373ffffffffffffffffffffffffffffffffffffffff167f17307eab39ab6107e8899845ad3d59bd9653f200f220920489ca2b5937696c318360405161186591906124d2565b60405180910390a3505050565b60008373ffffffffffffffffffffffffffffffffffffffff163b1115611a23578273ffffffffffffffffffffffffffffffffffffffff1663150b7a026118b6611455565b8685856040518563ffffffff1660e01b81526004016118d894939291906131fd565b6020604051808303816000875af192505050801561191457506040513d601f19601f82011682018060405250810190611911919061325e565b60015b611998573d8060008114611944576040519150601f19603f3d011682016040523d82523d6000602084013e611949565b606091505b50600081510361199057836040517f64a0ae920000000000000000000000000000000000000000000000000000000081526004016119879190612643565b60405180910390fd5b805181602001fd5b63150b7a0260e01b7bffffffffffffffffffffffffffffffffffffffffffffffffffffffff1916817bffffffffffffffffffffffffffffffffffffffffffffffffffffffff191614611a2157836040517f64a0ae92000000000000000000000000000000000000000000000000000000008152600401611a189190612643565b60405180910390fd5b505b50505050565b600081604051602001611a3c91906132c7565b6040516020818303038152906040528051906020012083604051602001611a6391906132c7565b6040516020818303038152906040528051906020012014905092915050565b6060611a8d82611390565b506000600660008481526020019081526020016000208054611aae90612b2c565b80601f0160208091040260200160405190810160405280929190818152602001828054611ada90612b2c565b8015611b275780601f10611afc57610100808354040283529160200191611b27565b820191906000526020600020905b815481529060010190602001808311611b0a57829003601f168201915b505050505090506000611b38611f59565b90506000815103611b4d578192505050611b90565b600082511115611b82578082604051602001611b6a9291906132de565b60405160208183030381529060405292505050611b90565b611b8b84611f70565b925050505b919050565b60007f80ac58cd000000000000000000000000000000000000000000000000000000007bffffffffffffffffffffffffffffffffffffffffffffffffffffffff1916827bffffffffffffffffffffffffffffffffffffffffffffffffffffffff19161480611c6057507f5b5e139f000000000000000000000000000000000000000000000000000000007bffffffffffffffffffffffffffffffffffffffffffffffffffffffff1916827bffffffffffffffffffffffffffffffffffffffffffffffffffffffff1916145b80611c705750611c6f82611fd9565b5b9050919050565b60006002600083815260200190815260200160002060009054906101000a900473ffffffffffffffffffffffffffffffffffffffff169050919050565b8080611ced5750600073ffffffffffffffffffffffffffffffffffffffff168273ffffffffffffffffffffffffffffffffffffffff1614155b15611e21576000611cfd84611390565b9050600073ffffffffffffffffffffffffffffffffffffffff168373ffffffffffffffffffffffffffffffffffffffff1614158015611d6857508273ffffffffffffffffffffffffffffffffffffffff168173ffffffffffffffffffffffffffffffffffffffff1614155b8015611d7b5750611d7981846111e1565b155b15611dbd57826040517fa9fbf51f000000000000000000000000000000000000000000000000000000008152600401611db49190612643565b60405180910390fd5b8115611e1f57838573ffffffffffffffffffffffffffffffffffffffff168273ffffffffffffffffffffffffffffffffffffffff167f8c5be1e5ebec7d5bd14f71427d1e84f3dd0314c0f7b2291e5b200ac8c7c3b92560405160405180910390a45b505b836004600085815260200190815260200160002060006101000a81548173ffffffffffffffffffffffffffffffffffffffff021916908373ffffffffffffffffffffffffffffffffffffffff16021790555050505050565b611e84838383612043565b611f3857600073ffffffffffffffffffffffffffffffffffffffff168373ffffffffffffffffffffffffffffffffffffffff1603611ef957806040517f7e273289000000000000000000000000000000000000000000000000000000008152600401611ef0919061272c565b60405180910390fd5b81816040517f177e802f000000000000000000000000000000000000000000000000000000008152600401611f2f929190613302565b60405180910390fd5b505050565b611f478383612104565b611f546000848484611872565b505050565b606060405180602001604052806000815250905090565b6060611f7b82611390565b506000611f86611f59565b90506000815111611fa65760405180602001604052806000815250611fd1565b80611fb0846121fd565b604051602001611fc19291906132de565b6040516020818303038152906040525b915050919050565b60007f01ffc9a7000000000000000000000000000000000000000000000000000000007bffffffffffffffffffffffffffffffffffffffffffffffffffffffff1916827bffffffffffffffffffffffffffffffffffffffffffffffffffffffff1916149050919050565b60008073ffffffffffffffffffffffffffffffffffffffff168373ffffffffffffffffffffffffffffffffffffffff16141580156120fb57508273ffffffffffffffffffffffffffffffffffffffff168473ffffffffffffffffffffffffffffffffffffffff1614806120bc57506120bb84846111e1565b5b806120fa57508273ffffffffffffffffffffffffffffffffffffffff166120e283611418565b73ffffffffffffffffffffffffffffffffffffffff16145b5b90509392505050565b600073ffffffffffffffffffffffffffffffffffffffff168273ffffffffffffffffffffffffffffffffffffffff16036121765760006040517f64a0ae9200000000000000000000000000000000000000000000000000000000815260040161216d9190612643565b60405180910390fd5b60006121848383600061146f565b9050600073ffffffffffffffffffffffffffffffffffffffff168173ffffffffffffffffffffffffffffffffffffffff16146121f85760006040517f73c6ac6e0000000000000000000000000000000000000000000000000000000081526004016121ef9190612643565b60405180910390fd5b505050565b60606000600161220c846122cb565b01905060008167ffffffffffffffff81111561222b5761222a61290f565b5b6040519080825280601f01601f19166020018201604052801561225d5781602001600182028036833780820191505090505b509050600082602001820190505b6001156122c0578080600190039150507f3031323334353637383961626364656600000000000000000000000000000000600a86061a8153600a85816122b4576122b3612cb1565b5b0494506000850361226b575b819350505050919050565b600080600090507a184f03e93ff9f4daa797ed6e38ed64bf6a1f0100000000000000008310612329577a184f03e93ff9f4daa797ed6e38ed64bf6a1f010000000000000000838161231f5761231e612cb1565b5b0492506040810190505b6d04ee2d6d415b85acef81000000008310612366576d04ee2d6d415b85acef8100000000838161235c5761235b612cb1565b5b0492506020810190505b662386f26fc10000831061239557662386f26fc10000838161238b5761238a612cb1565b5b0492506010810190505b6305f5e10083106123be576305f5e10083816123b4576123b3612cb1565b5b0492506008810190505b61271083106123e35761271083816123d9576123d8612cb1565b5b0492506004810190505b6064831061240657606483816123fc576123fb612cb1565b5b0492506002810190505b600a8310612415576001810190505b80915050919050565b6000604051905090565b600080fd5b600080fd5b60007fffffffff0000000000000000000000000000000000000000000000000000000082169050919050565b61246781612432565b811461247257600080fd5b50565b6000813590506124848161245e565b92915050565b6000602082840312156124a05761249f612428565b5b60006124ae84828501612475565b91505092915050565b60008115159050919050565b6124cc816124b7565b82525050565b60006020820190506124e760008301846124c3565b92915050565b600081519050919050565b600082825260208201905092915050565b60005b8381101561252757808201518184015260208101905061250c565b60008484015250505050565b6000601f19601f8301169050919050565b600061254f826124ed565b61255981856124f8565b9350612569818560208601612509565b61257281612533565b840191505092915050565b600060208201905081810360008301526125978184612544565b905092915050565b6000819050919050565b6125b28161259f565b81146125bd57600080fd5b50565b6000813590506125cf816125a9565b92915050565b6000602082840312156125eb576125ea612428565b5b60006125f9848285016125c0565b91505092915050565b600073ffffffffffffffffffffffffffffffffffffffff82169050919050565b600061262d82612602565b9050919050565b61263d81612622565b82525050565b60006020820190506126586000830184612634565b92915050565b61266781612622565b811461267257600080fd5b50565b6000813590506126848161265e565b92915050565b600080604083850312156126a1576126a0612428565b5b60006126af85828601612675565b92505060206126c0858286016125c0565b9150509250929050565b6000806000606084860312156126e3576126e2612428565b5b60006126f186828701612675565b935050602061270286828701612675565b9250506040612713868287016125c0565b9150509250925092565b6127268161259f565b82525050565b6000602082019050612741600083018461271d565b92915050565b600060808201905061275c600083018761271d565b612769602083018661271d565b612776604083018561271d565b612783606083018461271d565b95945050505050565b600081519050919050565b600082825260208201905092915050565b6000819050602082019050919050565b6127c18161259f565b82525050565b60006127d383836127b8565b60208301905092915050565b6000602082019050919050565b60006127f78261278c565b6128018185612797565b935061280c836127a8565b8060005b8381101561283d57815161282488826127c7565b975061282f836127df565b925050600181019050612810565b5085935050505092915050565b6000602082019050818103600083015261286481846127ec565b905092915050565b60006020828403121561288257612881612428565b5b600061289084828501612675565b91505092915050565b6128a2816124b7565b81146128ad57600080fd5b50565b6000813590506128bf81612899565b92915050565b600080604083850312156128dc576128db612428565b5b60006128ea85828601612675565b92505060206128fb858286016128b0565b9150509250929050565b600080fd5b600080fd5b7f4e487b7100000000000000000000000000000000000000000000000000000000600052604160045260246000fd5b61294782612533565b810181811067ffffffffffffffff821117156129665761296561290f565b5b80604052505050565b600061297961241e565b9050612985828261293e565b919050565b600067ffffffffffffffff8211156129a5576129a461290f565b5b6129ae82612533565b9050602081019050919050565b82818337600083830152505050565b60006129dd6129d88461298a565b61296f565b9050828152602081018484840111156129f9576129f861290a565b5b612a048482856129bb565b509392505050565b600082601f830112612a2157612a20612905565b5b8135612a318482602086016129ca565b91505092915050565b60008060008060808587031215612a5457612a53612428565b5b6000612a6287828801612675565b9450506020612a7387828801612675565b9350506040612a84878288016125c0565b925050606085013567ffffffffffffffff811115612aa557612aa461242d565b5b612ab187828801612a0c565b91505092959194509250565b60008060408385031215612ad457612ad3612428565b5b6000612ae285828601612675565b9250506020612af385828601612675565b9150509250929050565b7f4e487b7100000000000000000000000000000000000000000000000000000000600052602260045260246000fd5b60006002820490506001821680612b4457607f821691505b602082108103612b5757612b56612afd565b5b50919050565b6000606082019050612b726000830186612634565b612b7f602083018561271d565b612b8c6040830184612634565b949350505050565b7f4e487b7100000000000000000000000000000000000000000000000000000000600052601160045260246000fd5b6000612bce8261259f565b91507fffffffffffffffffffffffffffffffffffffffffffffffffffffffffffffffff8203612c0057612bff612b94565b5b600182019050919050565b6000819050919050565b612c26612c218261259f565b612c0b565b82525050565b60008160601b9050919050565b6000612c4482612c2c565b9050919050565b6000612c5682612c39565b9050919050565b612c6e612c6982612622565b612c4b565b82525050565b6000612c808286612c15565b602082019150612c908285612c5d565b601482019150612ca08284612c15565b602082019150819050949350505050565b7f4e487b7100000000000000000000000000000000000000000000000000000000600052601260045260246000fd5b6000612ceb8261259f565b9150612cf68361259f565b925082612d0657612d05612cb1565b5b828206905092915050565b7f4e487b7100000000000000000000000000000000000000000000000000000000600052603260045260246000fd5b7f566f6365206e616f2065206f2070726f70726965746172696f2064657374652060008201527f746f6b656e000000000000000000000000000000000000000000000000000000602082015250565b6000612d9c6025836124f8565b9150612da782612d40565b604082019050919050565b60006020820190508181036000830152612dcb81612d8f565b9050919050565b7f4573746520746f6b656e206a61206174696e676975206f20756c74696d6f206560008201527f73746167696f0000000000000000000000000000000000000000000000000000602082015250565b6000612e2e6026836124f8565b9150612e3982612dd2565b604082019050919050565b60006020820190508181036000830152612e5d81612e21565b9050919050565b6000612e6f8261259f565b9150612e7a8361259f565b9250828201905080821115612e9257612e91612b94565b5b92915050565b7f20766f6365206e616f2065206f2070726f70726965746172696f20646573746560008201527f20746f6b656e0000000000000000000000000000000000000000000000000000602082015250565b6000612ef46026836124f8565b9150612eff82612e98565b604082019050919050565b60006020820190508181036000830152612f2381612ee7565b9050919050565b60008190508160005260206000209050919050565b60006020601f8301049050919050565b600082821b905092915050565b600060088302612f8c7fffffffffffffffffffffffffffffffffffffffffffffffffffffffffffffffff82612f4f565b612f968683612f4f565b95508019841693508086168417925050509392505050565b6000819050919050565b6000612fd3612fce612fc98461259f565b612fae565b61259f565b9050919050565b6000819050919050565b612fed83612fb8565b613001612ff982612fda565b848454612f5c565b825550505050565b600090565b613016613009565b613021818484612fe4565b505050565b5b818110156130455761303a60008261300e565b600181019050613027565b5050565b601f82111561308a5761305b81612f2a565b61306484612f3f565b81016020851015613073578190505b61308761307f85612f3f565b830182613026565b50505b505050565b600082821c905092915050565b60006130ad6000198460080261308f565b1980831691505092915050565b60006130c6838361309c565b9150826002028217905092915050565b6130df826124ed565b67ffffffffffffffff8111156130f8576130f761290f565b5b6131028254612b2c565b61310d828285613049565b600060209050601f831160018114613140576000841561312e578287015190505b61313885826130ba565b8655506131a0565b601f19841661314e86612f2a565b60005b8281101561317657848901518255600182019150602085019450602081019050613151565b86831015613193578489015161318f601f89168261309c565b8355505b6001600288020188555050505b505050505050565b600081519050919050565b600082825260208201905092915050565b60006131cf826131a8565b6131d981856131b3565b93506131e9818560208601612509565b6131f281612533565b840191505092915050565b60006080820190506132126000830187612634565b61321f6020830186612634565b61322c604083018561271d565b818103606083015261323e81846131c4565b905095945050505050565b6000815190506132588161245e565b92915050565b60006020828403121561327457613273612428565b5b600061328284828501613249565b91505092915050565b600081905092915050565b60006132a1826124ed565b6132ab818561328b565b93506132bb818560208601612509565b80840191505092915050565b60006132d38284613296565b915081905092915050565b60006132ea8285613296565b91506132f68284613296565b91508190509392505050565b60006040820190506133176000830185612634565b613324602083018461271d565b939250505056fea2646970667358221220ae46d57881b5014f3abc9c173cb62f2976d7242cd308b283bcb3df4d0c53875464736f6c6343000814003368747470733a2f2f69766f72792d746f74616c2d6765636b6f2d3937352e6d7970696e6174612e636c6f75642f697066732f516d62384b6432394e45416a6563516b5148544d4a3247667853666b356a42526763724564634674754a6241345a2f476f626c696e735f4d6173746572732f31315f4554482e6a736f6e68747470733a2f2f69766f72792d746f74616c2d6765636b6f2d3937352e6d7970696e6174612e636c6f75642f697066732f516d62384b6432394e45416a6563516b5148544d4a3247667853666b356a42526763724564634674754a6241345a2f476f626c696e735f496e6963696169732f315f4574685f436c61737369632e6a736f6e68747470733a2f2f69766f72792d746f74616c2d6765636b6f2d3937352e6d7970696e6174612e636c6f75642f697066732f516d62384b6432394e45416a6563516b5148544d4a3247667853666b356a42526763724564634674754a6241345a2f476f626c696e735f696e7465726d6564696172696f732f365f534f4c2e6a736f6e68747470733a2f2f69766f72792d746f74616c2d6765636b6f2d3937352e6d7970696e6174612e636c6f75642f697066732f516d62384b6432394e45416a6563516b5148544d4a3247667853666b356a42526763724564634674754a6241345a2f476f626c696e735f696e7465726d6564696172696f732f355f4144412e6a736f6e68747470733a2f2f69766f72792d746f74616c2d6765636b6f2d3937352e6d7970696e6174612e636c6f75642f697066732f516d62384b6432394e45416a6563516b5148544d4a3247667853666b356a42526763724564634674754a6241345a2f476f626c696e735f4176616e25433325413761646f732f385f505954482e6a736f6e68747470733a2f2f69766f72792d746f74616c2d6765636b6f2d3937352e6d7970696e6174612e636c6f75642f697066732f516d62384b6432394e45416a6563516b5148544d4a3247667853666b356a42526763724564634674754a6241345a2f476f626c696e735f4d6173746572732f31325f4254432e6a736f6e68747470733a2f2f69766f72792d746f74616c2d6765636b6f2d3937352e6d7970696e6174612e636c6f75642f697066732f516d62384b6432394e45416a6563516b5148544d4a3247667853666b356a42526763724564634674754a6241345a2f476f626c696e735f4176616e25433325413761646f732f395f554e492e6a736f6e68747470733a2f2f69766f72792d746f74616c2d6765636b6f2d3937352e6d7970696e6174612e636c6f75642f697066732f516d62384b6432394e45416a6563516b5148544d4a3247667853666b356a42526763724564634674754a6241345a2f476f626c696e735f496e6963696169732f335f415641582e6a736f6e68747470733a2f2f69766f72792d746f74616c2d6765636b6f2d3937352e6d7970696e6174612e636c6f75642f697066732f516d62384b6432394e45416a6563516b5148544d4a3247667853666b356a42526763724564634674754a6241345a2f476f626c696e735f496e6963696169732f345f444f542e6a736f6e68747470733a2f2f69766f72792d746f74616c2d6765636b6f2d3937352e6d7970696e6174612e636c6f75642f697066732f516d62384b6432394e45416a6563516b5148544d4a3247667853666b356a42526763724564634674754a6241345a2f476f626c696e735f4176616e25433325413761646f732f31305f4c494e4b2e6a736f6e68747470733a2f2f69766f72792d746f74616c2d6765636b6f2d3937352e6d7970696e6174612e636c6f75642f697066732f516d62384b6432394e45416a6563516b5148544d4a3247667853666b356a42526763724564634674754a6241345a2f476f626c696e735f696e7465726d6564696172696f732f375f504f4c2e6a736f6e68747470733a2f2f69766f72792d746f74616c2d6765636b6f2d3937352e6d7970696e6174612e636c6f75642f697066732f516d62384b6432394e45416a6563516b5148544d4a3247667853666b356a42526763724564634674754a6241345a2f476f626c696e735f496e6963696169732f325f4254435f636173682e6a736f6e",
  "linkReferences": {},
  "deployedLinkReferences": {}
}