{
  "_format": "hh-sol-artifact-1",
  "contractName": "CryptoGoblinsNFT",
  "sourceName": "contracts/CryptoGoblinsNFT.sol",
  "abi": [
    {
      "inputs": [],
      "stateMutability": "nonpayable",
      "type": "constructor"
    },
    {
      "inputs": [
        {
          "internalType": "address",
          "name": "sender",
          "type": "address"
        },
        {
          "internalType": "uint256",
          "name": "tokenId",
          "type": "uint256"
        },
        {
          "internalType": "address",
          "name": "owner",
          "type": "address"
        }
      ],
      "name": "ERC721IncorrectOwner",
      "type": "error"
    },
    {
      "inputs": [
        {
          "internalType": "address",
          "name": "operator",
          "type": "address"
        },
        {
          "internalType": "uint256",
          "name": "tokenId",
          "type": "uint256"
        }
      ],
      "name": "ERC721InsufficientApproval",
      "type": "error"
    },
    {
      "inputs": [
        {
          "internalType": "address",
          "name": "approver",
          "type": "address"
        }
      ],
      "name": "ERC721InvalidApprover",
      "type": "error"
    },
    {
      "inputs": [
        {
          "internalType": "address",
          "name": "operator",
          "type": "address"
        }
      ],
      "name": "ERC721InvalidOperator",
      "type": "error"
    },
    {
      "inputs": [
        {
          "internalType": "address",
          "name": "owner",
          "type": "address"
        }
      ],
      "name": "ERC721InvalidOwner",
      "type": "error"
    },
    {
      "inputs": [
        {
          "internalType": "address",
          "name": "receiver",
          "type": "address"
        }
      ],
      "name": "ERC721InvalidReceiver",
      "type": "error"
    },
    {
      "inputs": [
        {
          "internalType": "address",
          "name": "sender",
          "type": "address"
        }
      ],
      "name": "ERC721InvalidSender",
      "type": "error"
    },
    {
      "inputs": [
        {
          "internalType": "uint256",
          "name": "tokenId",
          "type": "uint256"
        }
      ],
      "name": "ERC721NonexistentToken",
      "type": "error"
    },
    {
      "anonymous": false,
      "inputs": [
        {
          "indexed": true,
          "internalType": "address",
          "name": "owner",
          "type": "address"
        },
        {
          "indexed": true,
          "internalType": "address",
          "name": "approved",
          "type": "address"
        },
        {
          "indexed": true,
          "internalType": "uint256",
          "name": "tokenId",
          "type": "uint256"
        }
      ],
      "name": "Approval",
      "type": "event"
    },
    {
      "anonymous": false,
      "inputs": [
        {
          "indexed": true,
          "internalType": "address",
          "name": "owner",
          "type": "address"
        },
        {
          "indexed": true,
          "internalType": "address",
          "name": "operator",
          "type": "address"
        },
        {
          "indexed": false,
          "internalType": "bool",
          "name": "approved",
          "type": "bool"
        }
      ],
      "name": "ApprovalForAll",
      "type": "event"
    },
    {
      "anonymous": false,
      "inputs": [
        {
          "indexed": false,
          "internalType": "uint256",
          "name": "_fromTokenId",
          "type": "uint256"
        },
        {
          "indexed": false,
          "internalType": "uint256",
          "name": "_toTokenId",
          "type": "uint256"
        }
      ],
      "name": "BatchMetadataUpdate",
      "type": "event"
    },
    {
      "anonymous": false,
      "inputs": [
        {
          "indexed": false,
          "internalType": "uint256",
          "name": "_tokenId",
          "type": "uint256"
        }
      ],
      "name": "MetadataUpdate",
      "type": "event"
    },
    {
      "anonymous": false,
      "inputs": [
        {
          "indexed": true,
          "internalType": "address",
          "name": "from",
          "type": "address"
        },
        {
          "indexed": true,
          "internalType": "address",
          "name": "to",
          "type": "address"
        },
        {
          "indexed": true,
          "internalType": "uint256",
          "name": "tokenId",
          "type": "uint256"
        }
      ],
      "name": "Transfer",
      "type": "event"
    },
    {
      "inputs": [
        {
          "internalType": "uint256",
          "name": "",
          "type": "uint256"
        }
      ],
      "name": "IpfsUri",
      "outputs": [
        {
          "internalType": "string",
          "name": "",
          "type": "string"
        }
      ],
      "stateMutability": "view",
      "type": "function"
    },
    {
      "inputs": [
        {
          "internalType": "uint256",
          "name": "_tokenId",
          "type": "uint256"
        }
      ],
      "name": "NFTIndex",
      "outputs": [
        {
          "internalType": "uint256",
          "name": "",
          "type": "uint256"
        }
      ],
      "stateMutability": "view",
      "type": "function"
    },
    {
      "inputs": [
        {
          "internalType": "uint256",
          "name": "",
          "type": "uint256"
        }
      ],
      "name": "agility",
      "outputs": [
        {
          "internalType": "uint256",
          "name": "",
          "type": "uint256"
        }
      ],
      "stateMutability": "view",
      "type": "function"
    },
    {
      "inputs": [
        {
          "internalType": "address",
          "name": "to",
          "type": "address"
        },
        {
          "internalType": "uint256",
          "name": "tokenId",
          "type": "uint256"
        }
      ],
      "name": "approve",
      "outputs": [],
      "stateMutability": "nonpayable",
      "type": "function"
    },
    {
      "inputs": [
        {
          "internalType": "address",
          "name": "owner",
          "type": "address"
        }
      ],
      "name": "balanceOf",
      "outputs": [
        {
          "internalType": "uint256",
          "name": "",
          "type": "uint256"
        }
      ],
      "stateMutability": "view",
      "type": "function"
    },
    {
      "inputs": [
        {
          "internalType": "uint256",
          "name": "tokenId",
          "type": "uint256"
        }
      ],
      "name": "getApproved",
      "outputs": [
        {
          "internalType": "address",
          "name": "",
          "type": "address"
        }
      ],
      "stateMutability": "view",
      "type": "function"
    },
    {
      "inputs": [
        {
          "internalType": "uint256",
          "name": "_tokenId",
          "type": "uint256"
        }
      ],
      "name": "getAttributes",
      "outputs": [
        {
          "internalType": "uint256",
          "name": "strengthValue",
          "type": "uint256"
        },
        {
          "internalType": "uint256",
          "name": "agilityValue",
          "type": "uint256"
        },
        {
          "internalType": "uint256",
          "name": "magicValue",
          "type": "uint256"
        },
        {
          "internalType": "uint256",
          "name": "intelligenceValue",
          "type": "uint256"
        },
        {
          "internalType": "uint256",
          "name": "levelValue",
          "type": "uint256"
        }
      ],
      "stateMutability": "view",
      "type": "function"
    },
    {
      "inputs": [],
      "name": "getOwnedTokens",
      "outputs": [
        {
          "internalType": "uint256[]",
          "name": "",
          "type": "uint256[]"
        }
      ],
      "stateMutability": "view",
      "type": "function"
    },
    {
      "inputs": [
        {
          "internalType": "uint256",
          "name": "_tokenId",
          "type": "uint256"
        }
      ],
      "name": "increaseAgility",
      "outputs": [],
      "stateMutability": "nonpayable",
      "type": "function"
    },
    {
      "inputs": [
        {
          "internalType": "uint256",
          "name": "_tokenId",
          "type": "uint256"
        }
      ],
      "name": "increaseIntelligence",
      "outputs": [],
      "stateMutability": "nonpayable",
      "type": "function"
    },
    {
      "inputs": [
        {
          "internalType": "uint256",
          "name": "_tokenId",
          "type": "uint256"
        }
      ],
      "name": "increaseLevel",
      "outputs": [],
      "stateMutability": "nonpayable",
      "type": "function"
    },
    {
      "inputs": [
        {
          "internalType": "uint256",
          "name": "_tokenId",
          "type": "uint256"
        }
      ],
      "name": "increaseMagic",
      "outputs": [],
      "stateMutability": "nonpayable",
      "type": "function"
    },
    {
      "inputs": [
        {
          "internalType": "uint256",
          "name": "_tokenId",
          "type": "uint256"
        }
      ],
      "name": "increaseStrength",
      "outputs": [],
      "stateMutability": "nonpayable",
      "type": "function"
    },
    {
      "inputs": [
        {
          "internalType": "uint256",
          "name": "",
          "type": "uint256"
        }
      ],
      "name": "intelligence",
      "outputs": [
        {
          "internalType": "uint256",
          "name": "",
          "type": "uint256"
        }
      ],
      "stateMutability": "view",
      "type": "function"
    },
    {
      "inputs": [
        {
          "internalType": "address",
          "name": "owner",
          "type": "address"
        },
        {
          "internalType": "address",
          "name": "operator",
          "type": "address"
        }
      ],
      "name": "isApprovedForAll",
      "outputs": [
        {
          "internalType": "bool",
          "name": "",
          "type": "bool"
        }
      ],
      "stateMutability": "view",
      "type": "function"
    },
    {
      "inputs": [
        {
          "internalType": "uint256",
          "name": "",
          "type": "uint256"
        }
      ],
      "name": "level",
      "outputs": [
        {
          "internalType": "uint256",
          "name": "",
          "type": "uint256"
        }
      ],
      "stateMutability": "view",
      "type": "function"
    },
    {
      "inputs": [
        {
          "internalType": "uint256",
          "name": "",
          "type": "uint256"
        }
      ],
      "name": "magic",
      "outputs": [
        {
          "internalType": "uint256",
          "name": "",
          "type": "uint256"
        }
      ],
      "stateMutability": "view",
      "type": "function"
    },
    {
      "inputs": [],
      "name": "name",
      "outputs": [
        {
          "internalType": "string",
          "name": "",
          "type": "string"
        }
      ],
      "stateMutability": "view",
      "type": "function"
    },
    {
      "inputs": [
        {
          "internalType": "address",
          "name": "",
          "type": "address"
        },
        {
          "internalType": "uint256",
          "name": "",
          "type": "uint256"
        }
      ],
      "name": "ownedTokens",
      "outputs": [
        {
          "internalType": "uint256",
          "name": "",
          "type": "uint256"
        }
      ],
      "stateMutability": "view",
      "type": "function"
    },
    {
      "inputs": [
        {
          "internalType": "uint256",
          "name": "tokenId",
          "type": "uint256"
        }
      ],
      "name": "ownerOf",
      "outputs": [
        {
          "internalType": "address",
          "name": "",
          "type": "address"
        }
      ],
      "stateMutability": "view",
      "type": "function"
    },
    {
      "inputs": [
        {
          "internalType": "uint256",
          "name": "_tokenId",
          "type": "uint256"
        }
      ],
      "name": "rotatePhoto",
      "outputs": [],
      "stateMutability": "nonpayable",
      "type": "function"
    },
    {
      "inputs": [],
      "name": "safeMint",
      "outputs": [
        {
          "internalType": "uint256",
          "name": "tokenId",
          "type": "uint256"
        }
      ],
      "stateMutability": "nonpayable",
      "type": "function"
    },
    {
      "inputs": [
        {
          "internalType": "address",
          "name": "from",
          "type": "address"
        },
        {
          "internalType": "address",
          "name": "to",
          "type": "address"
        },
        {
          "internalType": "uint256",
          "name": "tokenId",
          "type": "uint256"
        }
      ],
      "name": "safeTransferFrom",
      "outputs": [],
      "stateMutability": "nonpayable",
      "type": "function"
    },
    {
      "inputs": [
        {
          "internalType": "address",
          "name": "from",
          "type": "address"
        },
        {
          "internalType": "address",
          "name": "to",
          "type": "address"
        },
        {
          "internalType": "uint256",
          "name": "tokenId",
          "type": "uint256"
        },
        {
          "internalType": "bytes",
          "name": "data",
          "type": "bytes"
        }
      ],
      "name": "safeTransferFrom",
      "outputs": [],
      "stateMutability": "nonpayable",
      "type": "function"
    },
    {
      "inputs": [
        {
          "internalType": "address",
          "name": "operator",
          "type": "address"
        },
        {
          "internalType": "bool",
          "name": "approved",
          "type": "bool"
        }
      ],
      "name": "setApprovalForAll",
      "outputs": [],
      "stateMutability": "nonpayable",
      "type": "function"
    },
    {
      "inputs": [
        {
          "internalType": "uint256",
          "name": "",
          "type": "uint256"
        }
      ],
      "name": "strength",
      "outputs": [
        {
          "internalType": "uint256",
          "name": "",
          "type": "uint256"
        }
      ],
      "stateMutability": "view",
      "type": "function"
    },
    {
      "inputs": [
        {
          "internalType": "bytes4",
          "name": "interfaceId",
          "type": "bytes4"
        }
      ],
      "name": "supportsInterface",
      "outputs": [
        {
          "internalType": "bool",
          "name": "",
          "type": "bool"
        }
      ],
      "stateMutability": "view",
      "type": "function"
    },
    {
      "inputs": [],
      "name": "symbol",
      "outputs": [
        {
          "internalType": "string",
          "name": "",
          "type": "string"
        }
      ],
      "stateMutability": "view",
      "type": "function"
    },
    {
      "inputs": [
        {
          "internalType": "uint256",
          "name": "tokenId",
          "type": "uint256"
        }
      ],
      "name": "tokenURI",
      "outputs": [
        {
          "internalType": "string",
          "name": "",
          "type": "string"
        }
      ],
      "stateMutability": "view",
      "type": "function"
    },
    {
      "inputs": [
        {
          "internalType": "address",
          "name": "from",
          "type": "address"
        },
        {
          "internalType": "address",
          "name": "to",
          "type": "address"
        },
        {
          "internalType": "uint256",
          "name": "tokenId",
          "type": "uint256"
        }
      ],
      "name": "transferFrom",
      "outputs": [],
      "stateMutability": "nonpayable",
      "type": "function"
    }
  ],
  "bytecode": "0x60806040526040518061018001604052806040518060c00160405280608781526020016200407c6087913981526020016040518060c001604052806084815260200162003ff86084913981526020016040518060a0016040528060808152602001620041036080913981526020016040518060a00160405280607f815260200162004288607f913981526020016040518060c0016040528060828152602001620041836082913981526020016040518060c001604052806082815260200162003dfc6082913981526020016040518060c001604052806082815260200162003f766082913981526020016040518060c0016040528060838152602001620042056083913981526020016040518060c001604052806082815260200162003d7a6082913981526020016040518060c0016040528060848152602001620043076084913981526020016040518060a00160405280607c815260200162003e7e607c913981526020016040518060a00160405280607c815260200162003efa607c9139815250600890600c6200019492919062000243565b50348015620001a257600080fd5b506040518060400160405280601081526020017f43727970746f476f626c696e734e4654000000000000000000000000000000008152506040518060400160405280600581526020017f53544147450000000000000000000000000000000000000000000000000000008152508160009081620002209190620005aa565b508060019081620002329190620005aa565b505050600060078190555062000691565b82805482825590600052602060002090810192821562000290579160200282015b828111156200028f5782518290816200027e9190620005aa565b509160200191906001019062000264565b5b5090506200029f9190620002a3565b5090565b5b80821115620002c75760008181620002bd9190620002cb565b50600101620002a4565b5090565b508054620002d99062000399565b6000825580601f10620002ed57506200030e565b601f0160209004906000526020600020908101906200030d919062000311565b5b50565b5b808211156200032c57600081600090555060010162000312565b5090565b600081519050919050565b7f4e487b7100000000000000000000000000000000000000000000000000000000600052604160045260246000fd5b7f4e487b7100000000000000000000000000000000000000000000000000000000600052602260045260246000fd5b60006002820490506001821680620003b257607f821691505b602082108103620003c857620003c76200036a565b5b50919050565b60008190508160005260206000209050919050565b60006020601f8301049050919050565b600082821b905092915050565b600060088302620004327fffffffffffffffffffffffffffffffffffffffffffffffffffffffffffffffff82620003f3565b6200043e8683620003f3565b95508019841693508086168417925050509392505050565b6000819050919050565b6000819050919050565b60006200048b620004856200047f8462000456565b62000460565b62000456565b9050919050565b6000819050919050565b620004a7836200046a565b620004bf620004b68262000492565b84845462000400565b825550505050565b600090565b620004d6620004c7565b620004e38184846200049c565b505050565b5b818110156200050b57620004ff600082620004cc565b600181019050620004e9565b5050565b601f8211156200055a576200052481620003ce565b6200052f84620003e3565b810160208510156200053f578190505b620005576200054e85620003e3565b830182620004e8565b50505b505050565b600082821c905092915050565b60006200057f600019846008026200055f565b1980831691505092915050565b60006200059a83836200056c565b9150826002028217905092915050565b620005b58262000330565b67ffffffffffffffff811115620005d157620005d06200033b565b5b620005dd825462000399565b620005ea8282856200050f565b600060209050601f8311600181146200062257600084156200060d578287015190505b6200061985826200058c565b86555062000689565b601f1984166200063286620003ce565b60005b828110156200065c5784890151825560018201915060208501945060208101905062000635565b868310156200067c578489015162000678601f8916826200056c565b8355505b6001600288020188555050505b505050505050565b6136d980620006a16000396000f3fe608060405234801561001057600080fd5b50600436106101da5760003560e01c806383965a7a11610104578063c0c553a0116100a2578063e149f03611610071578063e149f036146105b3578063e985e9c5146105e3578063ef6af4c214610613578063f8ea173e1461062f576101da565b8063c0c553a0146104f3578063c1a489df14610523578063c87b56dd14610553578063cd0d51f814610583576101da565b8063a22cb465116100de578063a22cb46514610483578063a77e98e91461049f578063b88d4fde146104bb578063be4854eb146104d7576101da565b806383965a7a146104195780638ff417ab1461043557806395d89b4114610465576101da565b8063412071051161017c5780636352211e1161014b5780636352211e1461037f5780636871ee40146103af57806370a08231146103cd57806378ca73d7146103fd576101da565b806341207105146102f557806342842e0e146103115780634378a6e31461032d57806360820d8014610361576101da565b8063081812fc116101b8578063081812fc1461025d578063095ea7b31461028d57806323b872dd146102a95780633ed79594146102c5576101da565b806301ffc9a7146101df57806305c58df21461020f57806306fdde031461023f575b600080fd5b6101f960048036038101906101f491906127c0565b61065f565b6040516102069190612808565b60405180910390f35b61022960048036038101906102249190612859565b610671565b6040516102369190612895565b60405180910390f35b610247610689565b6040516102549190612940565b60405180910390f35b61027760048036038101906102729190612859565b61071b565b60405161028491906129a3565b60405180910390f35b6102a760048036038101906102a291906129ea565b610737565b005b6102c360048036038101906102be9190612a2a565b61074d565b005b6102df60048036038101906102da9190612859565b61084f565b6040516102ec9190612895565b60405180910390f35b61030f600480360381019061030a9190612859565b610867565b005b61032b60048036038101906103269190612a2a565b610909565b005b61034760048036038101906103429190612859565b610929565b604051610358959493929190612a7d565b60405180910390f35b6103696109a8565b6040516103769190612b8e565b60405180910390f35b61039960048036038101906103949190612859565b610a3d565b6040516103a691906129a3565b60405180910390f35b6103b7610a4f565b6040516103c49190612895565b60405180910390f35b6103e760048036038101906103e29190612bb0565b610da2565b6040516103f49190612895565b60405180910390f35b61041760048036038101906104129190612859565b610e5c565b005b610433600480360381019061042e9190612859565b61104d565b005b61044f600480360381019061044a9190612859565b6110ef565b60405161045c9190612940565b60405180910390f35b61046d61119b565b60405161047a9190612940565b60405180910390f35b61049d60048036038101906104989190612c09565b61122d565b005b6104b960048036038101906104b49190612859565b611243565b005b6104d560048036038101906104d09190612d7e565b6112e5565b005b6104f160048036038101906104ec9190612859565b611302565b005b61050d60048036038101906105089190612859565b6113a4565b60405161051a9190612895565b60405180910390f35b61053d60048036038101906105389190612859565b6113bc565b60405161054a9190612895565b60405180910390f35b61056d60048036038101906105689190612859565b6114bc565b60405161057a9190612940565b60405180910390f35b61059d60048036038101906105989190612859565b6114ce565b6040516105aa9190612895565b60405180910390f35b6105cd60048036038101906105c891906129ea565b6114e6565b6040516105da9190612895565b60405180910390f35b6105fd60048036038101906105f89190612e01565b611517565b60405161060a9190612808565b60405180910390f35b61062d60048036038101906106289190612859565b6115ab565b005b61064960048036038101906106449190612859565b61164d565b6040516106569190612895565b60405180910390f35b600061066a82611665565b9050919050565b600a6020528060005260406000206000915090505481565b60606000805461069890612e70565b80601f01602080910402602001604051908101604052809291908181526020018280546106c490612e70565b80156107115780601f106106e657610100808354040283529160200191610711565b820191906000526020600020905b8154815290600101906020018083116106f457829003601f168201915b5050505050905090565b6000610726826116c6565b506107308261174e565b9050919050565b610749828261074461178b565b611793565b5050565b600073ffffffffffffffffffffffffffffffffffffffff168273ffffffffffffffffffffffffffffffffffffffff16036107bf5760006040517f64a0ae920000000000000000000000000000000000000000000000000000000081526004016107b691906129a3565b60405180910390fd5b60006107d383836107ce61178b565b6117a5565b90508373ffffffffffffffffffffffffffffffffffffffff168173ffffffffffffffffffffffffffffffffffffffff1614610849578382826040517f64283d7b00000000000000000000000000000000000000000000000000000000815260040161084093929190612ea1565b60405180910390fd5b50505050565b600b6020528060005260406000206000915090505481565b3373ffffffffffffffffffffffffffffffffffffffff1661088782610a3d565b73ffffffffffffffffffffffffffffffffffffffff16146108dd576040517f08c379a00000000000000000000000000000000000000000000000000000000081526004016108d490612f4a565b60405180910390fd5b600a6000828152602001908152602001600020600081548092919061090190612f99565b919050555050565b610924838383604051806020016040528060008152506112e5565b505050565b6000806000806000600a6000878152602001908152602001600020549050600b6000878152602001908152602001600020549450600c6000878152602001908152602001600020549350600d6000878152602001908152602001600020549250600e600087815260200190815260200160002054915091939590929450565b6060600960003373ffffffffffffffffffffffffffffffffffffffff1673ffffffffffffffffffffffffffffffffffffffff168152602001908152602001600020805480602002602001604051908101604052809291908181526020018280548015610a3357602002820191906000526020600020905b815481526020019060010190808311610a1f575b5050505050905090565b6000610a48826116c6565b9050919050565b600080600754905060076000815480929190610a6a90612f99565b919050555060006004423384604051602001610a889392919061304a565b6040516020818303038152906040528051906020012060001c610aab91906130b6565b9050610ab733836119bf565b610b678260088381548110610acf57610ace6130e7565b5b906000526020600020018054610ae490612e70565b80601f0160208091040260200160405190810160405280929190818152602001828054610b1090612e70565b8015610b5d5780601f10610b3257610100808354040283529160200191610b5d565b820191906000526020600020905b815481529060010190602001808311610b4057829003601f168201915b50505050506119dd565b6000600a60008481526020019081526020016000208190555060008103610bed576001600b6000848152602001908152602001600020819055506001600c6000848152602001908152602001600020819055506001600d6000848152602001908152602001600020819055506001600e6000848152602001908152602001600020819055505b60018103610c5a576002600b6000848152602001908152602001600020819055506003600c6000848152602001908152602001600020819055506003600d6000848152602001908152602001600020819055506003600e6000848152602001908152602001600020819055505b60028103610cc7576001600b6000848152602001908152602001600020819055506003600c6000848152602001908152602001600020819055506001600d6000848152602001908152602001600020819055506002600e6000848152602001908152602001600020819055505b60038103610d34576002600b6000848152602001908152602001600020819055506003600c6000848152602001908152602001600020819055506001600d6000848152602001908152602001600020819055506002600e6000848152602001908152602001600020819055505b600960003373ffffffffffffffffffffffffffffffffffffffff1673ffffffffffffffffffffffffffffffffffffffff168152602001908152602001600020829080600181540180825580915050600190039060005260206000200160009091909190915055819250505090565b60008073ffffffffffffffffffffffffffffffffffffffff168273ffffffffffffffffffffffffffffffffffffffff1603610e155760006040517f89c62b64000000000000000000000000000000000000000000000000000000008152600401610e0c91906129a3565b60405180910390fd5b600360008373ffffffffffffffffffffffffffffffffffffffff1673ffffffffffffffffffffffffffffffffffffffff168152602001908152602001600020549050919050565b3373ffffffffffffffffffffffffffffffffffffffff16610e7c82610a3d565b73ffffffffffffffffffffffffffffffffffffffff1614610ed2576040517f08c379a0000000000000000000000000000000000000000000000000000000008152600401610ec990613188565b60405180910390fd5b6001600880549050610ee491906131a8565b610eed826113bc565b10610f2d576040517f08c379a0000000000000000000000000000000000000000000000000000000008152600401610f249061324e565b60405180910390fd5b60006001610f3a836113bc565b610f44919061326e565b9050600060088281548110610f5c57610f5b6130e7565b5b906000526020600020018054610f7190612e70565b80601f0160208091040260200160405190810160405280929190818152602001828054610f9d90612e70565b8015610fea5780601f10610fbf57610100808354040283529160200191610fea565b820191906000526020600020905b815481529060010190602001808311610fcd57829003601f168201915b50505050509050610ffb83826119dd565b60005b60018110156110475761101084610867565b61101984611302565b6110228461104d565b61102b846115ab565b61103484611243565b808061103f90612f99565b915050610ffe565b50505050565b3373ffffffffffffffffffffffffffffffffffffffff1661106d82610a3d565b73ffffffffffffffffffffffffffffffffffffffff16146110c3576040517f08c379a00000000000000000000000000000000000000000000000000000000081526004016110ba90612f4a565b60405180910390fd5b600c600082815260200190815260200160002060008154809291906110e790612f99565b919050555050565b600881815481106110ff57600080fd5b90600052602060002001600091509050805461111a90612e70565b80601f016020809104026020016040519081016040528092919081815260200182805461114690612e70565b80156111935780601f1061116857610100808354040283529160200191611193565b820191906000526020600020905b81548152906001019060200180831161117657829003601f168201915b505050505081565b6060600180546111aa90612e70565b80601f01602080910402602001604051908101604052809291908181526020018280546111d690612e70565b80156112235780601f106111f857610100808354040283529160200191611223565b820191906000526020600020905b81548152906001019060200180831161120657829003601f168201915b5050505050905090565b61123f61123861178b565b8383611a39565b5050565b3373ffffffffffffffffffffffffffffffffffffffff1661126382610a3d565b73ffffffffffffffffffffffffffffffffffffffff16146112b9576040517f08c379a00000000000000000000000000000000000000000000000000000000081526004016112b090612f4a565b60405180910390fd5b600e600082815260200190815260200160002060008154809291906112dd90612f99565b919050555050565b6112f084848461074d565b6112fc84848484611ba8565b50505050565b3373ffffffffffffffffffffffffffffffffffffffff1661132282610a3d565b73ffffffffffffffffffffffffffffffffffffffff1614611378576040517f08c379a000000000000000000000000000000000000000000000000000000000815260040161136f90612f4a565b60405180910390fd5b600b6000828152602001908152602001600020600081548092919061139c90612f99565b919050555050565b600c6020528060005260406000206000915090505481565b6000806113c8836114bc565b905060005b6008805490508110156114ac5761148a82600883815481106113f2576113f16130e7565b5b90600052602060002001805461140790612e70565b80601f016020809104026020016040519081016040528092919081815260200182805461143390612e70565b80156114805780601f1061145557610100808354040283529160200191611480565b820191906000526020600020905b81548152906001019060200180831161146357829003601f168201915b5050505050611d5f565b156114995780925050506114b7565b80806114a490612f99565b9150506113cd565b506008805490509150505b919050565b60606114c782611db8565b9050919050565b600e6020528060005260406000206000915090505481565b6009602052816000526040600020818154811061150257600080fd5b90600052602060002001600091509150505481565b6000600560008473ffffffffffffffffffffffffffffffffffffffff1673ffffffffffffffffffffffffffffffffffffffff16815260200190815260200160002060008373ffffffffffffffffffffffffffffffffffffffff1673ffffffffffffffffffffffffffffffffffffffff16815260200190815260200160002060009054906101000a900460ff16905092915050565b3373ffffffffffffffffffffffffffffffffffffffff166115cb82610a3d565b73ffffffffffffffffffffffffffffffffffffffff1614611621576040517f08c379a000000000000000000000000000000000000000000000000000000000815260040161161890612f4a565b60405180910390fd5b600d6000828152602001908152602001600020600081548092919061164590612f99565b919050555050565b600d6020528060005260406000206000915090505481565b6000634906490660e01b7bffffffffffffffffffffffffffffffffffffffffffffffffffffffff1916827bffffffffffffffffffffffffffffffffffffffffffffffffffffffff191614806116bf57506116be82611ecb565b5b9050919050565b6000806116d283611fad565b9050600073ffffffffffffffffffffffffffffffffffffffff168173ffffffffffffffffffffffffffffffffffffffff160361174557826040517f7e27328900000000000000000000000000000000000000000000000000000000815260040161173c9190612895565b60405180910390fd5b80915050919050565b60006004600083815260200190815260200160002060009054906101000a900473ffffffffffffffffffffffffffffffffffffffff169050919050565b600033905090565b6117a08383836001611fea565b505050565b6000806117b184611fad565b9050600073ffffffffffffffffffffffffffffffffffffffff168373ffffffffffffffffffffffffffffffffffffffff16146117f3576117f28184866121af565b5b600073ffffffffffffffffffffffffffffffffffffffff168173ffffffffffffffffffffffffffffffffffffffff161461188457611835600085600080611fea565b6001600360008373ffffffffffffffffffffffffffffffffffffffff1673ffffffffffffffffffffffffffffffffffffffff168152602001908152602001600020600082825403925050819055505b600073ffffffffffffffffffffffffffffffffffffffff168573ffffffffffffffffffffffffffffffffffffffff1614611907576001600360008773ffffffffffffffffffffffffffffffffffffffff1673ffffffffffffffffffffffffffffffffffffffff168152602001908152602001600020600082825401925050819055505b846002600086815260200190815260200160002060006101000a81548173ffffffffffffffffffffffffffffffffffffffff021916908373ffffffffffffffffffffffffffffffffffffffff160217905550838573ffffffffffffffffffffffffffffffffffffffff168273ffffffffffffffffffffffffffffffffffffffff167fddf252ad1be2c89b69c2b068fc378daa952ba7f163c4a11628f55a4df523b3ef60405160405180910390a4809150509392505050565b6119d9828260405180602001604052806000815250612273565b5050565b806006600084815260200190815260200160002090816119fd919061344e565b507ff8e1a15aba9398e019f0b49df1a4fde98ee17ae345cb5f6b5e2c27f5033e8ce782604051611a2d9190612895565b60405180910390a15050565b600073ffffffffffffffffffffffffffffffffffffffff168273ffffffffffffffffffffffffffffffffffffffff1603611aaa57816040517f5b08ba18000000000000000000000000000000000000000000000000000000008152600401611aa191906129a3565b60405180910390fd5b80600560008573ffffffffffffffffffffffffffffffffffffffff1673ffffffffffffffffffffffffffffffffffffffff16815260200190815260200160002060008473ffffffffffffffffffffffffffffffffffffffff1673ffffffffffffffffffffffffffffffffffffffff16815260200190815260200160002060006101000a81548160ff0219169083151502179055508173ffffffffffffffffffffffffffffffffffffffff168373ffffffffffffffffffffffffffffffffffffffff167f17307eab39ab6107e8899845ad3d59bd9653f200f220920489ca2b5937696c3183604051611b9b9190612808565b60405180910390a3505050565b60008373ffffffffffffffffffffffffffffffffffffffff163b1115611d59578273ffffffffffffffffffffffffffffffffffffffff1663150b7a02611bec61178b565b8685856040518563ffffffff1660e01b8152600401611c0e9493929190613575565b6020604051808303816000875af1925050508015611c4a57506040513d601f19601f82011682018060405250810190611c4791906135d6565b60015b611cce573d8060008114611c7a576040519150601f19603f3d011682016040523d82523d6000602084013e611c7f565b606091505b506000815103611cc657836040517f64a0ae92000000000000000000000000000000000000000000000000000000008152600401611cbd91906129a3565b60405180910390fd5b805181602001fd5b63150b7a0260e01b7bffffffffffffffffffffffffffffffffffffffffffffffffffffffff1916817bffffffffffffffffffffffffffffffffffffffffffffffffffffffff191614611d5757836040517f64a0ae92000000000000000000000000000000000000000000000000000000008152600401611d4e91906129a3565b60405180910390fd5b505b50505050565b600081604051602001611d72919061363f565b6040516020818303038152906040528051906020012083604051602001611d99919061363f565b6040516020818303038152906040528051906020012014905092915050565b6060611dc3826116c6565b506000600660008481526020019081526020016000208054611de490612e70565b80601f0160208091040260200160405190810160405280929190818152602001828054611e1090612e70565b8015611e5d5780601f10611e3257610100808354040283529160200191611e5d565b820191906000526020600020905b815481529060010190602001808311611e4057829003601f168201915b505050505090506000611e6e61228f565b90506000815103611e83578192505050611ec6565b600082511115611eb8578082604051602001611ea0929190613656565b60405160208183030381529060405292505050611ec6565b611ec1846122a6565b925050505b919050565b60007f80ac58cd000000000000000000000000000000000000000000000000000000007bffffffffffffffffffffffffffffffffffffffffffffffffffffffff1916827bffffffffffffffffffffffffffffffffffffffffffffffffffffffff19161480611f9657507f5b5e139f000000000000000000000000000000000000000000000000000000007bffffffffffffffffffffffffffffffffffffffffffffffffffffffff1916827bffffffffffffffffffffffffffffffffffffffffffffffffffffffff1916145b80611fa65750611fa58261230f565b5b9050919050565b60006002600083815260200190815260200160002060009054906101000a900473ffffffffffffffffffffffffffffffffffffffff169050919050565b80806120235750600073ffffffffffffffffffffffffffffffffffffffff168273ffffffffffffffffffffffffffffffffffffffff1614155b15612157576000612033846116c6565b9050600073ffffffffffffffffffffffffffffffffffffffff168373ffffffffffffffffffffffffffffffffffffffff161415801561209e57508273ffffffffffffffffffffffffffffffffffffffff168173ffffffffffffffffffffffffffffffffffffffff1614155b80156120b157506120af8184611517565b155b156120f357826040517fa9fbf51f0000000000000000000000000000000000000000000000000000000081526004016120ea91906129a3565b60405180910390fd5b811561215557838573ffffffffffffffffffffffffffffffffffffffff168273ffffffffffffffffffffffffffffffffffffffff167f8c5be1e5ebec7d5bd14f71427d1e84f3dd0314c0f7b2291e5b200ac8c7c3b92560405160405180910390a45b505b836004600085815260200190815260200160002060006101000a81548173ffffffffffffffffffffffffffffffffffffffff021916908373ffffffffffffffffffffffffffffffffffffffff16021790555050505050565b6121ba838383612379565b61226e57600073ffffffffffffffffffffffffffffffffffffffff168373ffffffffffffffffffffffffffffffffffffffff160361222f57806040517f7e2732890000000000000000000000000000000000000000000000000000000081526004016122269190612895565b60405180910390fd5b81816040517f177e802f00000000000000000000000000000000000000000000000000000000815260040161226592919061367a565b60405180910390fd5b505050565b61227d838361243a565b61228a6000848484611ba8565b505050565b606060405180602001604052806000815250905090565b60606122b1826116c6565b5060006122bc61228f565b905060008151116122dc5760405180602001604052806000815250612307565b806122e684612533565b6040516020016122f7929190613656565b6040516020818303038152906040525b915050919050565b60007f01ffc9a7000000000000000000000000000000000000000000000000000000007bffffffffffffffffffffffffffffffffffffffffffffffffffffffff1916827bffffffffffffffffffffffffffffffffffffffffffffffffffffffff1916149050919050565b60008073ffffffffffffffffffffffffffffffffffffffff168373ffffffffffffffffffffffffffffffffffffffff161415801561243157508273ffffffffffffffffffffffffffffffffffffffff168473ffffffffffffffffffffffffffffffffffffffff1614806123f257506123f18484611517565b5b8061243057508273ffffffffffffffffffffffffffffffffffffffff166124188361174e565b73ffffffffffffffffffffffffffffffffffffffff16145b5b90509392505050565b600073ffffffffffffffffffffffffffffffffffffffff168273ffffffffffffffffffffffffffffffffffffffff16036124ac5760006040517f64a0ae920000000000000000000000000000000000000000000000000000000081526004016124a391906129a3565b60405180910390fd5b60006124ba838360006117a5565b9050600073ffffffffffffffffffffffffffffffffffffffff168173ffffffffffffffffffffffffffffffffffffffff161461252e5760006040517f73c6ac6e00000000000000000000000000000000000000000000000000000000815260040161252591906129a3565b60405180910390fd5b505050565b60606000600161254284612601565b01905060008167ffffffffffffffff81111561256157612560612c53565b5b6040519080825280601f01601f1916602001820160405280156125935781602001600182028036833780820191505090505b509050600082602001820190505b6001156125f6578080600190039150507f3031323334353637383961626364656600000000000000000000000000000000600a86061a8153600a85816125ea576125e9613087565b5b049450600085036125a1575b819350505050919050565b600080600090507a184f03e93ff9f4daa797ed6e38ed64bf6a1f010000000000000000831061265f577a184f03e93ff9f4daa797ed6e38ed64bf6a1f010000000000000000838161265557612654613087565b5b0492506040810190505b6d04ee2d6d415b85acef8100000000831061269c576d04ee2d6d415b85acef8100000000838161269257612691613087565b5b0492506020810190505b662386f26fc1000083106126cb57662386f26fc1000083816126c1576126c0613087565b5b0492506010810190505b6305f5e10083106126f4576305f5e10083816126ea576126e9613087565b5b0492506008810190505b612710831061271957612710838161270f5761270e613087565b5b0492506004810190505b6064831061273c576064838161273257612731613087565b5b0492506002810190505b600a831061274b576001810190505b80915050919050565b6000604051905090565b600080fd5b600080fd5b60007fffffffff0000000000000000000000000000000000000000000000000000000082169050919050565b61279d81612768565b81146127a857600080fd5b50565b6000813590506127ba81612794565b92915050565b6000602082840312156127d6576127d561275e565b5b60006127e4848285016127ab565b91505092915050565b60008115159050919050565b612802816127ed565b82525050565b600060208201905061281d60008301846127f9565b92915050565b6000819050919050565b61283681612823565b811461284157600080fd5b50565b6000813590506128538161282d565b92915050565b60006020828403121561286f5761286e61275e565b5b600061287d84828501612844565b91505092915050565b61288f81612823565b82525050565b60006020820190506128aa6000830184612886565b92915050565b600081519050919050565b600082825260208201905092915050565b60005b838110156128ea5780820151818401526020810190506128cf565b60008484015250505050565b6000601f19601f8301169050919050565b6000612912826128b0565b61291c81856128bb565b935061292c8185602086016128cc565b612935816128f6565b840191505092915050565b6000602082019050818103600083015261295a8184612907565b905092915050565b600073ffffffffffffffffffffffffffffffffffffffff82169050919050565b600061298d82612962565b9050919050565b61299d81612982565b82525050565b60006020820190506129b86000830184612994565b92915050565b6129c781612982565b81146129d257600080fd5b50565b6000813590506129e4816129be565b92915050565b60008060408385031215612a0157612a0061275e565b5b6000612a0f858286016129d5565b9250506020612a2085828601612844565b9150509250929050565b600080600060608486031215612a4357612a4261275e565b5b6000612a51868287016129d5565b9350506020612a62868287016129d5565b9250506040612a7386828701612844565b9150509250925092565b600060a082019050612a926000830188612886565b612a9f6020830187612886565b612aac6040830186612886565b612ab96060830185612886565b612ac66080830184612886565b9695505050505050565b600081519050919050565b600082825260208201905092915050565b6000819050602082019050919050565b612b0581612823565b82525050565b6000612b178383612afc565b60208301905092915050565b6000602082019050919050565b6000612b3b82612ad0565b612b458185612adb565b9350612b5083612aec565b8060005b83811015612b81578151612b688882612b0b565b9750612b7383612b23565b925050600181019050612b54565b5085935050505092915050565b60006020820190508181036000830152612ba88184612b30565b905092915050565b600060208284031215612bc657612bc561275e565b5b6000612bd4848285016129d5565b91505092915050565b612be6816127ed565b8114612bf157600080fd5b50565b600081359050612c0381612bdd565b92915050565b60008060408385031215612c2057612c1f61275e565b5b6000612c2e858286016129d5565b9250506020612c3f85828601612bf4565b9150509250929050565b600080fd5b600080fd5b7f4e487b7100000000000000000000000000000000000000000000000000000000600052604160045260246000fd5b612c8b826128f6565b810181811067ffffffffffffffff82111715612caa57612ca9612c53565b5b80604052505050565b6000612cbd612754565b9050612cc98282612c82565b919050565b600067ffffffffffffffff821115612ce957612ce8612c53565b5b612cf2826128f6565b9050602081019050919050565b82818337600083830152505050565b6000612d21612d1c84612cce565b612cb3565b905082815260208101848484011115612d3d57612d3c612c4e565b5b612d48848285612cff565b509392505050565b600082601f830112612d6557612d64612c49565b5b8135612d75848260208601612d0e565b91505092915050565b60008060008060808587031215612d9857612d9761275e565b5b6000612da6878288016129d5565b9450506020612db7878288016129d5565b9350506040612dc887828801612844565b925050606085013567ffffffffffffffff811115612de957612de8612763565b5b612df587828801612d50565b91505092959194509250565b60008060408385031215612e1857612e1761275e565b5b6000612e26858286016129d5565b9250506020612e37858286016129d5565b9150509250929050565b7f4e487b7100000000000000000000000000000000000000000000000000000000600052602260045260246000fd5b60006002820490506001821680612e8857607f821691505b602082108103612e9b57612e9a612e41565b5b50919050565b6000606082019050612eb66000830186612994565b612ec36020830185612886565b612ed06040830184612994565b949350505050565b7f20766f6365206e616f2065206f2070726f70726965746172696f20646573746560008201527f20746f6b656e0000000000000000000000000000000000000000000000000000602082015250565b6000612f346026836128bb565b9150612f3f82612ed8565b604082019050919050565b60006020820190508181036000830152612f6381612f27565b9050919050565b7f4e487b7100000000000000000000000000000000000000000000000000000000600052601160045260246000fd5b6000612fa482612823565b91507fffffffffffffffffffffffffffffffffffffffffffffffffffffffffffffffff8203612fd657612fd5612f6a565b5b600182019050919050565b6000819050919050565b612ffc612ff782612823565b612fe1565b82525050565b60008160601b9050919050565b600061301a82613002565b9050919050565b600061302c8261300f565b9050919050565b61304461303f82612982565b613021565b82525050565b60006130568286612feb565b6020820191506130668285613033565b6014820191506130768284612feb565b602082019150819050949350505050565b7f4e487b7100000000000000000000000000000000000000000000000000000000600052601260045260246000fd5b60006130c182612823565b91506130cc83612823565b9250826130dc576130db613087565b5b828206905092915050565b7f4e487b7100000000000000000000000000000000000000000000000000000000600052603260045260246000fd5b7f566f6365206e616f2065206f2070726f70726965746172696f2064657374652060008201527f746f6b656e000000000000000000000000000000000000000000000000000000602082015250565b60006131726025836128bb565b915061317d82613116565b604082019050919050565b600060208201905081810360008301526131a181613165565b9050919050565b60006131b382612823565b91506131be83612823565b92508282039050818111156131d6576131d5612f6a565b5b92915050565b7f4573746520746f6b656e206a61206174696e676975206f20756c74696d6f206560008201527f73746167696f0000000000000000000000000000000000000000000000000000602082015250565b60006132386026836128bb565b9150613243826131dc565b604082019050919050565b600060208201905081810360008301526132678161322b565b9050919050565b600061327982612823565b915061328483612823565b925082820190508082111561329c5761329b612f6a565b5b92915050565b60008190508160005260206000209050919050565b60006020601f8301049050919050565b600082821b905092915050565b6000600883026133047fffffffffffffffffffffffffffffffffffffffffffffffffffffffffffffffff826132c7565b61330e86836132c7565b95508019841693508086168417925050509392505050565b6000819050919050565b600061334b61334661334184612823565b613326565b612823565b9050919050565b6000819050919050565b61336583613330565b61337961337182613352565b8484546132d4565b825550505050565b600090565b61338e613381565b61339981848461335c565b505050565b5b818110156133bd576133b2600082613386565b60018101905061339f565b5050565b601f821115613402576133d3816132a2565b6133dc846132b7565b810160208510156133eb578190505b6133ff6133f7856132b7565b83018261339e565b50505b505050565b600082821c905092915050565b600061342560001984600802613407565b1980831691505092915050565b600061343e8383613414565b9150826002028217905092915050565b613457826128b0565b67ffffffffffffffff8111156134705761346f612c53565b5b61347a8254612e70565b6134858282856133c1565b600060209050601f8311600181146134b857600084156134a6578287015190505b6134b08582613432565b865550613518565b601f1984166134c6866132a2565b60005b828110156134ee578489015182556001820191506020850194506020810190506134c9565b8683101561350b5784890151613507601f891682613414565b8355505b6001600288020188555050505b505050505050565b600081519050919050565b600082825260208201905092915050565b600061354782613520565b613551818561352b565b93506135618185602086016128cc565b61356a816128f6565b840191505092915050565b600060808201905061358a6000830187612994565b6135976020830186612994565b6135a46040830185612886565b81810360608301526135b6818461353c565b905095945050505050565b6000815190506135d081612794565b92915050565b6000602082840312156135ec576135eb61275e565b5b60006135fa848285016135c1565b91505092915050565b600081905092915050565b6000613619826128b0565b6136238185613603565b93506136338185602086016128cc565b80840191505092915050565b600061364b828461360e565b915081905092915050565b6000613662828561360e565b915061366e828461360e565b91508190509392505050565b600060408201905061368f6000830185612994565b61369c6020830184612886565b939250505056fea26469706673582212209d255c871faee34f9e249146911a2fbaaf1ebc501538ece9b94e2e6672042a5e64736f6c6343000814003368747470733a2f2f69766f72792d746f74616c2d6765636b6f2d3937352e6d7970696e6174612e636c6f75642f697066732f516d5a5a366a515457354552704d42797a3258626641667763324d3566535835614671506134794668794c4563422f476f626c696e735f4176616e25433325413761646f732f395f556e692e6a736f6e68747470733a2f2f69766f72792d746f74616c2d6765636b6f2d3937352e6d7970696e6174612e636c6f75642f697066732f516d5a5a366a515457354552704d42797a3258626641667763324d3566535835614671506134794668794c4563422f476f626c696e735f496e7465726d6564696172696f732f365f736f6c2e6a736f6e68747470733a2f2f69766f72792d746f74616c2d6765636b6f2d3937352e6d7970696e6174612e636c6f75642f697066732f516d5a5a366a515457354552704d42797a3258626641667763324d3566535835614671506134794668794c4563422f476f626c696e735f4d6173746572732f31315f4554482e6a736f6e68747470733a2f2f69766f72792d746f74616c2d6765636b6f2d3937352e6d7970696e6174612e636c6f75642f697066732f516d5a5a366a515457354552704d42797a3258626641667763324d3566535835614671506134794668794c4563422f476f626c696e735f4d6173746572732f31325f4254432e6a736f6e68747470733a2f2f69766f72792d746f74616c2d6765636b6f2d3937352e6d7970696e6174612e636c6f75642f697066732f516d5a5a366a515457354552704d42797a3258626641667763324d3566535835614671506134794668794c4563422f476f626c696e735f496e7465726d6564696172696f732f375f706f6c2e6a736f6e68747470733a2f2f69766f72792d746f74616c2d6765636b6f2d3937352e6d7970696e6174612e636c6f75642f697066732f516d5a5a366a515457354552704d42797a3258626641667763324d3566535835614671506134794668794c4563422f476f626c696e735f496e6963696169732532302f325f4254435f436173682e6a736f6e68747470733a2f2f69766f72792d746f74616c2d6765636b6f2d3937352e6d7970696e6174612e636c6f75642f697066732f516d5a5a366a515457354552704d42797a3258626641667763324d3566535835614671506134794668794c4563422f476f626c696e735f496e6963696169732532302f315f4554485f436c61737369632e6a736f6e68747470733a2f2f69766f72792d746f74616c2d6765636b6f2d3937352e6d7970696e6174612e636c6f75642f697066732f516d5a5a366a515457354552704d42797a3258626641667763324d3566535835614671506134794668794c4563422f476f626c696e735f496e6963696169732532302f335f417661782e6a736f6e68747470733a2f2f69766f72792d746f74616c2d6765636b6f2d3937352e6d7970696e6174612e636c6f75642f697066732f516d5a5a366a515457354552704d42797a3258626641667763324d3566535835614671506134794668794c4563422f476f626c696e735f496e7465726d6564696172696f732f355f4144412e6a736f6e68747470733a2f2f69766f72792d746f74616c2d6765636b6f2d3937352e6d7970696e6174612e636c6f75642f697066732f516d5a5a366a515457354552704d42797a3258626641667763324d3566535835614671506134794668794c4563422f476f626c696e735f4176616e25433325413761646f732f385f507974682e6a736f6e68747470733a2f2f69766f72792d746f74616c2d6765636b6f2d3937352e6d7970696e6174612e636c6f75642f697066732f516d5a5a366a515457354552704d42797a3258626641667763324d3566535835614671506134794668794c4563422f476f626c696e735f496e6963696169732532302f345f446f742e6a736f6e68747470733a2f2f69766f72792d746f74616c2d6765636b6f2d3937352e6d7970696e6174612e636c6f75642f697066732f516d5a5a366a515457354552704d42797a3258626641667763324d3566535835614671506134794668794c4563422f476f626c696e735f4176616e25433325413761646f732f31305f6c696e6b2e6a736f6e",
  "linkReferences": {},
  "deployedLinkReferences": {}
}